S0130000456E6B6F6465722B4C43442E737265634B
S11300006CC07BC07AC079C078C077C076C075C038
S113001074C073C072C071C070C06FC06EC06DC058
S11300206CC06BC06AC007634236B79BD8A71A3945
S1130030685618AEBAAB558C1D3CB7CC5763BD6D32
S1130040EDFD753EF6177231BF000000803F0800D9
S11300500000BE922449123EABAAAA2ABECDCCCC43
S11300604C3E00000080BEABAAAAAA3E00000000DD
S1130070BF000000803F0000000000084178D3BBAF
S11300804387D1133D190E3CC3BD4282AD2B3E685C
S1130090EC8276BED98FE1A93E4C80EFFFBE01C44D
S11300A0FF7F3F000000000034323020424C415AB0
S11300B04520495400474954204755442046414768
S11300C0474554004A554D50004100485A00414D9F
S11300D0503A00465245513A000011241FBECFE564
S11300E0D4E0DEBFCDBF20E0A0E6B0E001C01D92A9
S11300F0A736B207E1F7FAD0C2C982CF34D560E09F
S113010081E011D581E02AD560E086E00CD581E05C
S113011025D560E08CE007D581E020D50895CF9304
S1130120C82F80916100882381F0CA3081F08091CA
S1130130600081111FC081E011D560E081E0F3D43B
S113014081E00CD51092610015C0CA3099F48091F9
S11301506000811109C081E08093600060E080EC60
S1130160E2D481E0FBD40BC081E080936100109263
S1130170600005C061E08C2FD6D481E0EFD4CF912C
S11301800895CF92DF92EF926B01E82EFB018491E8
S1130190E7FC8081882359F0C2DF8FEFC81AD80AA0
S11301A0E80AF6018491E7FC80818111F5CFEF9094
S11301B0DF90CF90089590E4699F800D112460E052
S11301C08068B1D481E0CAD4089560E081E0ABD402
S11301D080E0C4D408957F928F929F92AF92BF9291
S11301E0CF92DF92EF92FF920F931F93CF93DF93FF
S11301F0CDB7DEB728970FB6F894DEBF0FBECDBFDC
S1130200E22EF32E788C898C98A0C9A0DEDF60E002
S113021080E0D1DF88A5882321F163ED70E080E0E0
S1130220B0DF4AE08E010F5F1F4FB8018E2D9F2D66
S1130230F3D860E085E0BFDF980140E8D02EE32EDC
S1130240F42E842FB9019DDF60E08EE0B4DF6BEC07
S113025070E080E096DF4AE0B801872D982DDCD865
S113026023C06EEC70E080E08CDF4AE08E010F5F0B
S11302701F4FB8018A2D9B2DCFD860E085E09BDF0E
S1130280980140E8D02EE32EF42E842FB90179DFB3
S113029060E08EE090DF69EC70E080E072DF4AE0BD
S11302A0B801892D9C2DB8D861E080E084DF64EC2E
S11302B070E080E066DF61E085E07DDF6D2D7E2DFE
S11302C08F2D5FDF28960FB6F894DEBF0FBECDBF2B
S11302D0DF91CF911F910F91FF90EF90DF90CF901E
S11302E0BF90AF909F908F907F900895CF93DF93AE
S11302F0CDB7DEB7AD970FB6F894DEBF0FBECDBF56
S113030017BA88B3816E88BBF9DE15E085EB90E0FF
S11303106C01E12C88EA90E03C01812C60E081E0F2
S11303204ADF8E2DB6012DDF61E082E044DF882DA7
S1130330B30127DF87EA91E60197F1F700C00000D7
S113034044DFA7EAB1E61197F1F700C000001150AD
S113035029F71F921F921F921F921F921F921F92A2
S11303601F928AE08F931F921F921F921F921F92D7
S11303701F9283E08F9388EE8F93A12CB12CC12C14
S1130380D12CE12CF12C00E020E030E040E050E002
S113039060E070E080E090E01EDF0FB6F894DEBF0E
S11303A00FBECDBF1A8E1B8E1C8E1D8E1E8E1F8EF1
S11303B018A219A21AA2FAE0FCA31DA21EA21FA24F
S11303C018A619A61AA61BA628EE288783E08987F3
S11303D01A861B861C861D861E861F861A8A1B8A01
S11303E01C8A1D8A1E8A1F8A188E198E91E0998B89
S11303F0312CA3E0ABA31BC0BCA5BA8FEDA5EB8F3A
S11304009C8E8D8E7E8E6F8E58A249A2F889FAA397
S11304102A8A29812B8B8A818C8B9B819D8BAC8131
S1130420AE8BBD81BF8BEE81E88FFF81F98FB699CA
S11304300EC02AA181E02827288B9FE5AAEEB0E010
S11304409150A040B040E1F700C0000002C0EAA112
S1130450E88BB69BFECFB599B0C187EA91E60197C8
S1130460F1F700C00000ACA0BDA0CEA0DFA0E8A4BE
S1130470F9A40AA51BA597C19889992309F47CC0FE
S1130480288539854A855B856C857D858E859F8524
S113049014D42B013C0186B390916500292F2827A1
S11304A020FF0DC0A3E6B0E02C91211108C0E8ECB8
S11304B0EC939E7F282F2170922B9093650090914E
S11304C06500292F28270CF0DAC2A4E6B0E02C91AD
S11304D02111D5C2E8ECEC939F778078982B909308
S11304E06500CDC28150A4E6B0E08C93B09B02C0FD
S11304F0832D01C08BA1B79902C0B1E08B279091E5
S11305006200981B90FF09C080936200809166008E
S113051081509270980F9093660060916600862FC8
S11305208170809366006595772767FD7095872FA6
S1130530972F88D39B01AC0160E070E080E291E4E6
S11305408FD49B01AC01C301B20127D444D32983C6
S11305503A834B835C83262E7D838E839F83A32DD6
S113056043D709F48BC04A2C5B2C6C2C7D2C8E2C2D
S11305709F2C0DA31CA3ABC02A2D3B2D4C2D5D2D10
S11305806E2D7F2D802F912F98D32B013C0186B3A4
S113059090916500292F282720FF0DC0E3E6F0E0A5
S11305A02081211108C028EC20839E7F282F2170F0
S11305B0922B9093650090916500292F28270CF0C9
S11305C06BC2A4E6B0E02C91211166C2E8ECEC9376
S11305D09F778078982B909365005EC28150A4E643
S11305E0B0E08C93B09B02C0832D01C08BA1B7995E
S11305F002C0B1E08B2790916200981B90FF09C064
S1130600809362008091660081509270980F90935D
S1130610660060916600862F817080936600659500
S1130620772767FD7095872F972F0CD39B01AC011B
S113063060E070E080E291E413D49B01AC01C3015B
S1130640B201ABD3C8D2422E532E642E752E862E01
S1130650972E8DA39CA3A32DC7D611F1E885E9831A
S1130660F985FA832A852B838B858C832C849D853D
S11306709D83AE85AE83BF85BF8329C04A2C5B2C86
S11306806C2C7D2C8E2C9F2C0DA31CA3E989E98353
S11306903A823B823C82232C3D823E823F8217C0B9
S11306A0F885F98329852A838A858B839B859C8396
S11306B02C84AD85AD83BE85BE83EF85EF834988E9
S11306C0532C632C732C832C932C3DA23CA2E989DC
S11306D0242D352D462D572D682D792D8DA19CA1C6
S11306E07AD609F4E32DE11116C0E98929813A810A
S11306F04B815C81622D7D818E819F81A884B98428
S1130700CA84DB84EC84FD840E851F8564D609F4D9
S1130710E32DEE2389F1F889FF932CA12F938DA16A
S11307208F939F928F927F926F925F924F929F814D
S11307309F93AE81AF93BD81BF932F92EC81EF93D2
S1130740FB81FF932A812F9389818F93AA88BB8889
S1130750CC88DD88EE88FF88088D198D2A8D3B8D25
S11307604C8D5D8D6E8D7F8D88A199A134DD0FB682
S1130770F894DEBF0FBECDBFA42CB52CC62CD72C4D
S1130780E82CF92C0DA11CA1B981B887EA81E9876D
S1130790FB81FA872C812B872C868D818D879E8106
S11307A09E87AF81AF87B59B67CEACA2BDA2CEA218
S11307B0DFA2E8A6F9A60AA71BA7B889BB2309F4F8
S11307C07CC086B390916500292F282720FF0DC097
S11307D0E3E6F0E02081211108C028EC20839E7F0D
S11307E0282F2170922B9093650090916500292FFA
S11307F028270CF05EC1A4E6B0E02C91211159C168
S1130800E8ECEC939F778078892B8093650051C145
S11308108150A4E6B0E08C93B09B02C0832D01C04C
S113082083E0B79902C0B1E08B2790916200981BD6
S113083090FF09C08093620080916600815092709D
S1130840980F9093660010916600812F81708093B9
S11308506600A12EA594110F110BB12EC12ED12E1D
S1130860E12EF12E012F288539854A855B856C851B
S11308707D858E859F8555D5AA8CBB8CCC8CDD8CD3
S1130880EE8CFF8C08A119A19DD52CA73DA7942E11
S1130890852E762E672E582E492E2A88EB89E983D9
S11308A0FC89FA832D892B838E898C839F899D8370
S11308B0A88DAE83B98DBF8376C086B39091650051
S11308C0292F282720FF0DC0E3E6F0E02081211125
S11308D008C028EC20839E7F282F2170922B9093B0
S11308E0650090916500292F28270CF0EFC0A4E63D
S11308F0B0E02C912111EAC0E8ECEC939F7780786A
S1130900892B80936500E2C08150A4E6B0E08C930B
S1130910B09B02C0832D01C083E0B79902C0B1E04F
S11309208B2790916200981B90FF09C0809362000E
S11309308091660081509270980F90936600109198
S11309406600812F817080936600A12EA594110FFB
S1130950110BB12EC12ED12EE12EF12E012F2CA17F
S11309603DA14EA15FA168A579A58AA59BA5D9D46F
S1130970AA88BB88CC88DD88EE88FF88088D198D0D
S113098021D5222E39834A835B836C837D838E83B6
S11309909F83EA8DECA7FB8DFDA79C8C8D8C7E8CB0
S11309A06F8C58A049A0F1E02A8D3B8D4C8D5D8D54
S11309B06E8D7F8D88A199A1ACA4BDA4C92CD82C1F
S11309C0E72CF62C052D142D06D509F4F32DE1E0C2
S11309D02A893B894C895D896E897F89888D998DA7
S11309E0A22CB980CA80DB80EC80FD800E811F813F
S11309F0F2D409F4E32DEF2B49F481E02AA198897C
S1130A00291301C0832D882309F4F6CCA889AF9358
S1130A10BBA5BF93EAA5EF93F9A5FF9328A52F9350
S1130A208FA18F939EA19F93ADA1AF93BCA1BF93C0
S1130A30EF85EF93FE85FF932D852F938C858F9300
S1130A409B859F93AA85AF93B985BF93E885EF9360
S1130A50A22CB980CA80DB80EC80FD800E811F81CE
S1130A602CA53DA5492D582D672D762D852D942D2A
S1130A70B2DB0FB6F894DEBF0FBECDBFBDCCA3E68C
S1130A80B0E08C91882311F081508C93E4E6F0E07F
S1130A908081811127CD2ACDA3E6B0E08C918823F3
S1130AA011F081508C93E4E6F0E08081811196CDC1
S1130AB099CDA3E6B0E08C91882311F081508C93FA
S1130AC0E4E6F0E080818111A3CEA6CEA3E6B0E0F7
S1130AD08C91882311F081508C93E4E6F0E08081BE
S1130AE0811112CF15CF9398662311F0949A01C007
S1130AF0949895B3907F892B85BB929A9298089588
S1130B00939A94B3907F94BB882311F0949A01C074
S1130B109498929A000083B3929894B39F6094BB84
S1130B2093988F700895CF93DF93C82FD62F829513
S1130B308F70D9DF6D2F8C2F8F70D5DFDF91CF9120
S1130B400895CF93DF93C82FDBDFD82FD295D07FC2
S1130B508C2FD6DF8D2BDF91CF91089580E0F1DFCC
S1130B608823E4F308958C9A8B9A8A9A84B38F60CD
S1130B7084BB85EA9EE00197F1F700C0000060E0C5
S1130B8083E0B1DF80E094E00197F1F700C000005A
S1130B9060E083E0A8DF91E29A95F1F7000060E05D
S1130BA083E0A1DF8CE08A95F1F7000060E082E049
S1130BB09ADF80E0D3DF60E088E2B5DF80E0CEDF5B
S1130BC060E088E0B0DF80E0C9DF0895BEE304D0D0
S1130BD008F490E80895BFE322273327A901C3D07E
S1130BE058F19F5740F1B91738F1BFE3B91B992762
S1130BF0B8503AF4660F771F881F991FB395D2F344
S1130C0016C0B8504AF0232F342F452F562F672F84
S1130C10782F8827B850BAF7B85F49F0869577954A
S1130C2067955795479537952795BA95B9F70EF473
S1130C3082D088940895889460E070E0CB01089590
S1130C40E89409C097FB3EF4909580957095619562
S1130C507F4F8F4F9F4F9923A9F0F92F96E9BB2718
S1130C609395F695879577956795B795F111F8CF94
S1130C70FAF4BB0F11F460FF1BC06F5F7F4F8F4FFF
S1130C809F4F16C0882311F096E911C0772321F0F5
S1130C909EE8872F762F05C0662371F096E8862F8D
S1130CA070E060E02AF09A95660F771F881FDAF7E4
S1130CB0880F9695879597F90895E894F92F96EB00
S1130CC0FF2381F0121613061406440B9395F69530
S1130CD087957795679557954040FF23B9F71BC0D3
S1130CE099270895882351F49850D2F7872B762FAB
S1130CF0652F542F432F322F20E0B1F31216130621
S1130D001406440B88233AF09A95440F551F661F26
S1130D10771F881FCAF755234AF4440F551F11F44F
S1130D2060FF04C06F5F7F4F8F4F9F4F880F969572
S1130D30879597F90895909580957095609550954D
S1130D404095309521953F4F4F4F5F4F6F4F7F4FE9
S1130D508F4F9F4F089557FD9058440F551F59F0DA
S1130D605F3F71F04795880F97FB991F61F09F3F94
S1130D7079F087950895121613061406551FF2CFBD
S1130D804695F1DF08C0161617061806991FF1CF0D
S1130D90869571056105089408950BD01AC10BD18D
S1130DA028F010D118F0952309F0D7C0DCC0112425
S1130DB022C1D1DFA0F3959FD1F3950F50E0551FC9
S1130DC0629FF001729FBB27F00DB11D639FAA279C
S1130DD0F00DB11DAA1F649F6627B00DA11D661FEB
S1130DE0829F2227B00DA11D621F739FB00DA11D0C
S1130DF0621F839FA00D611D221F749F3327A00DC6
S1130E00611D231F849F600D211D822F762F6A2F61
S1130E1011249F5750408AF0E1F088234AF0EE0FE6
S1130E20FF1FBB1F661F771F881F91505040A9F7F3
S1130E309E3F510570F091C0DEC05F3FECF3983ED9
S1130E40DCF3869577956795B795F795E7959F5F5A
S1130E50C1F7FE2B880F911D9695879597F90895F4
S1130E60FA01EE0FFF1F30962105310599F1611546
S1130E70710561F48038BFE39B0749F168949038A9
S1130E80810561F08038BFEF9B0741F0992342F55B
S1130E90FF3FE1053105210511F1E8940894E79538
S1130EA0D901AA2329F4AB2FBE2FF85FD0F310C0C9
S1130EB0FF5F70F4A695E0F7F73950F019F0FF3AA8
S1130EC038F49F779F930CD00F9007FC90580895A7
S1130ED03EF049C060E070E080E89FE308954FE78A
S1130EE09F775F934F933F932F93CDD02F913F9153
S1130EF04F915F9152DF05C019F40EF02EC07AC0F5
S1130F0032C031DFC8F39638C0F707F80F92E8947F
S1130F102BE33AEA48EB5FE74EDF0F920F920F9212
S1130F204DB75EB70F92EFD0E6E2F0E01FD04F91DD
S1130F305F91EF91FF91E595EE1FFF1F49F0FE577A
S1130F40E0684427EE0F441FFA95E1F74195550BED
S1130F5061D00F9007FE55C0089597F99F6780E808
S1130F6070E060E008959FEF80EC0895DF93CF93E5
S1130F701F930F93FF92EF92DF927B018C01689491
S1130F8005C0DA2EEF0115DFFE01E894A591259145
S1130F90359145915591AEF3EF01FAD0FE019701D9
S1130FA0A801DA9479F7DF90EF90FF900F911F91E9
S1130FB0CF91DF91089500240A9416161706180697
S1130FC00906089500240A94121613061406050649
S1130FD00895092E0394000C11F4882352F0BB0FDA
S1130FE040F4BF2B11F460FF04C06F5F7F4F8F4F3D
S1130FF09F4F0895E894BB2766277727CB0197F97D
S113100008959B01AC0160E070E080E89FE313C1A8
S1131010A4CF79C1A8DEE8F39923D9F3940F511D25
S1131020BBF39150504094F059F0882332F0660F8E
S1131030771F881F91505040C1F79E3F510544F7D8
S1131040880F911D9695879597F908955F3FACF0A9
S1131050983E9CF0BB27869577956795B79508F4DD
S1131060B1609395C1F7BB0F58F711F460FFE8CF57
S11310706F5F7F4F8F4F9F4FE3CFBDCF0EF043C1C4
S113108072CF68946ACF6FDEC8F39923D1F3C6F3A5
S1131090DF93CF931F930F93FF92C92FDD278823EC
S11310A02AF02197660F771F881FDAF720E030E0D7
S11310B040E85FEB9FE3883920F0803E30F02196D2
S11310C08F7755D0EEE4F0E003C051D0EBE7F0E0C9
S11310D04DDF8B01BE01EC01FB2E6F577109759535
S11310E0771F880B990BAEDD28E132E741E35FE31C
S11310F060DEAF2D9801AE01FF900F911F91CF914B
S1131100DF9146D066CFFA01DC01AA0FBB1F9B0119
S1131110AC01BF5728F422273327442750781FC037
S1131120B75188F4AB2F0024469537952795011CB9
S1131130A395D2F3002069F0220F331F441FB39507
S1131140DAF30DD013C061307105A0E88A07B946FF
S113115030F49B01AC016627772788279078309676
S113116021F0208331834283538308955058BB2751
S1131170AA270ED02ECF1FDF30F024DF20F031F469
S11311809F3F11F41EF4EFCE0EF4E095E7FBE5CE9D
S1131190E92FE1DD80F3BA17620773078407950727
S11311A018F071F49EF526CF0EF4E0950B2EBA2FAD
S11311B0A02D0B01B90190010C01CA01A001112459
S11311C0FF27591B99F0593F50F4503E68F11A1605
S11311D0F040A22F232F342F4427585FF3CF469596
S11311E037952795A795F0405395C9F77EF41F16B8
S11311F0BA0B620B730B840BBAF09150A1F0FF0F82
S1131200BB1F661F771F881FC2F70EC0BA0F621F6D
S1131210731F841F48F4879577956795B795F7955D
S11312209E3F08F0B3CF9395880F08F09927EE0FEF
S11312309795879508950CD0CCCEC4DE40F0BBDEE4
S113124030F021F45F3F19F088CE5111D4CE8BCE0B
S113125082DD98F39923C9F35523B1F3951B550BFC
S1131260BB27AA2762177307840738F09F5F5F4F75
S1131270220F331F441FAA1FA9F333D00E2E3AF0B6
S1131280E0E830D091505040E695001CCAF729D0D0
S1131290FE2F27D0660F771F881FBB1F261737071F
S11312A04807AB07B0E809F0BB0B802DBF01FF274F
S11312B093585F4F2AF09E3F510568F04ECE9BCE67
S11312C05F3FECF3983EDCF3869577956795B79589
S11312D0F7959F5FC9F7880F911D9695879597F9A4
S11312E00895E1E0660F771F881FBB1F621773071D
S11312F08407BA0720F0621B730B840BBA0BEE1F32
S113130088F7E09508959F3F31F0915020F4879538
S113131077956795B795880F911D9695879597F959
S11313200895DF93CF931F930F939A9DF02D219FE0
S1131330F00D8B9DF00D8A9DE02DF10D039FF00DB6
S1131340029FE00DF11D4E9DE00DF11D5E9DF00D1F
S11313504F9DF00D7F936F93BF92AF925F934F9326
S1131360D5014ED08B01AC01D7014AD0EB01E80F77
S1131370F91FD6011FD02F913F91D60141D0C60F3E
S1131380D71FE81FF91FAF91BF9114D02F913F9140
S113139037D0C60FD71FE81FF91FD60131D0E60F8B
S11313A0F71F9801BE01CF0111240F911F91CF9116
S11313B0DF91089525D0460F571FC81FD91F08F481
S11313C0319608952A0D3B1D4C1D5D1D6E1D7F1D1C
S11313D0801F911F08952A153B054C055D056E0578
S11313E07F058007910708950024A7FD00942A171C
S11313F03005400550056005700580059005089589
S1131400A29FB001B39FC001A39F01D0B29F700DF2
S1131410811D1124911D0895BB274A3031F499236D
S113142022F4BDE2909581959F4F01C0BB27FB013B
S11314305527AA27880F991FAA1FA41710F0A41BC9
S113144083955051B9F7A05DAA3308F0A95DA19323
S1131450009779F7B111B1931192CB0100C0DC016F
S1131460FC01672F71917723E1F7329704C07C91D7
S11314706D9370836291AE17BF07C8F30895F89413
S1051480FFCF98
S9030000FC
