S0130000456E6B6F6465722B4C43442E737265634B
S11300006CC07BC07AC079C078C077C076C075C038
S113001074C073C072C071C070C06FC06EC06DC058
S11300206CC06BC06AC007634236B79BD8A71A3945
S1130030685618AEBAAB558C1D3CB7CC5763BD6D32
S1130040EDFD753EF6177231BF000000803F0800D9
S11300500000BE922449123EABAAAA2ABECDCCCC43
S11300604C3E00000080BEABAAAAAA3E00000000DD
S1130070BF000000803F0000000000084178D3BBAF
S11300804387D1133D190E3CC3BD4282AD2B3E685C
S1130090EC8276BED98FE1A93E4C80EFFFBE01C44D
S11300A0FF7F3F000000000034323020424C415AB0
S11300B04520495400474954204755442046414768
S11300C0474554004A554D50004100485A00414D9F
S11300D0503A00465245513A000011241FBECFE564
S11300E0D4E0DEBFCDBF20E0A0E6B0E001C01D92A9
S11300F0A736B207E1F747D145C882CF72D460E092
S113010081E04FD481E068D460E086E04AD481E0A5
S113011063D460E08CE045D481E05ED40895CF934D
S1130120C82F80916100882381F0CA3081F08091CA
S1130130600081111FC081E04FD460E081E031D4C0
S113014081E04AD41092610015C0CA3099F48091BC
S11301506000811109C081E08093600060E080EC60
S113016020D481E039D40BC081E0809361001092E7
S1130170600005C061E08C2F14D481E02DD4CF91B0
S11301800895CF92DF92EF926B01E82EFB018491E8
S1130190E7FC8081882359F0C2DF8FEFC81AD80AA0
S11301A0E80AF6018491E7FC80818111F5CFEF9094
S11301B0DF90CF90089590E4699F800D112460E052
S11301C08068EFD381E008D4089560E081E0E9D34A
S11301D080E002D408958F929F92AF92BF92CF9203
S11301E0DF92EF92FF924B015C0169017A012115C4
S11301F031054105510551F120FD13C0CA01B90172
S113020096958795779567954BD46B017C01C501CD
S1130210B40146D4A70196010CD59B01AC01A6D428
S113022019C03ED44B015C01C701B601615071098C
S11302308109910935D49B01AC01C501B401F9D4FC
S11302409B01AC01C501B40191D404C060E070E02D
S113025080E89FE3FF90EF90DF90CF90BF90AF9046
S11302609F908F9008954F925F926F927F928F929A
S1130270AF92BF92CF92DF92EF92FF920F931F93B0
S1130280CF93DF93CDB7DEB760970FB6F894DEBF98
S11302900FBECDBF2B013C0129873A874B875C8772
S11302A0ED86FE860F87188B90DF60E080E083DFA9
S11302B0882019F163ED70E080E063DF4AE08E018D
S11302C00F5F1F4FB801C2012AD760E085E073DFDA
S11302D0C801A0E8502E692E7A2EBC018A2F51DF66
S11302E060E08EE068DF6BEC70E080E04ADF4AE0BB
S11302F0B8018D859E8513D722C06EEC70E080E036
S113030040DF4AE08E010F5F1F4FB80189859A854F
S113031006D760E085E04FDFC801A0E8502E692EC3
S11303207A2EBC018A2F2DDF60E08EE044DF69EC79
S113033070E080E026DF4AE0B801C501F0D661E054
S113034080E039DF64EC70E080E01BDF61E085E091
S113035032DF652D762D872D14DF60960FB6F89465
S1130360DEBF0FBECDBFDF91CF911F910F91FF90E4
S1130370EF90DF90CF90BF90AF908F907F906F9071
S11303805F904F900895CF93DF93CDB7DEB7699711
S11303900FB6F894DEBF0FBECDBF17BA88B3816E17
S11303A088BBACDEA12CB12C85EB90E03C01812C08
S11303B088EA90E06C01E12C60E081E0FCDE882DAD
S11303C0B301DFDE61E082E0F6DE8E2DB601D9DE18
S11303D087EA91E60197F1F700C00000F6DEAFE48A
S11303E0B3EC1197F1F700C00000BFEFAB1ABB0AE2
S11303F0E5E0AE16B10401F7812C0F2EFAE0AF2E22
S1130400B12CC12CD12CF02D18EEE12E13E0F12EDD
S113041000E010E020E030E0A90160E070E0CB01F2
S113042022DF188A1AE0E12EF12C00E010E0EE8AB7
S1130430FF8A088F198F08EE13E020E030E00A8B62
S11304401B8B2C8B3D8B1B861C861D861E861F8258
S1130450188619861A860F2EF3E62F2EF0E03F2E0B
S1130460F02D11E01D831F8623E0298B0DC0988A8F
S113047089819A81AB81BC818B879C87AD87BE873C
S11304804F82588669867A86B6990DC0988891E01D
S11304909926AFE5BAEEE0E0A150B040E040E1F7C4
S11304A000C0000001C09888B69BFECFB5992EC14C
S11304B087EA91E60197F1F700C00000CE88DF8853
S11304C0E88CF98C9E828A889B88AC88BD8813C18D
S11304D09E81992309F469C0C501B401E1D22B01BD
S11304E03C0186B390916500292F282720FF0CC07A
S11304F0D1012C91211108C0E8ECEC939E7F282FA8
S11305002170922B9093650090916500292F2827E4
S11305100CF0F7C1A4E6B0E02C912111F2C1E8EC93
S1130520EC939F778078892B80936500EAC1815092
S1130530A4E6B0E08C93B09B02C08F8501C089898A
S1130540B79902C0B1E08B2790916200981B90FF8D
S113055009C0809362008091660081509270980F68
S11305609093660020916600822F817080936600CC
S11305702595332727FD3095432F532F6AE070E0EC
S113058080E090E028DE9B01AC01C301B201EED211
S11305905BD269837A838B839C83672B682B692B5B
S11305A009F46CC0260137017AC0C701B60178D2BC
S11305B02B013C0186B390916500292F282720FF49
S11305C00CC0F1012081211108C008EC00839E7F3A
S11305D0282F2170922B9093650090916500292F0C
S11305E028270CF09AC1A4E6B0E02C91211195C102
S11305F0E8ECEC939F778078892B809365008DC11C
S11306008150A4E6B0E08C93B09B02C08F8501C0FA
S11306108989B79902C0B1E08B2790916200981B39
S113062090FF09C0809362008091660081509270AF
S1130630980F9093660020916600822F81708093BA
S113064066002595332727FD3095432F532F6AE005
S113065070E080E090E0BFDD9B01AC01C301B2011A
S113066085D2F2D12B013C016115710581059105FB
S113067069F089829A82AB82BC8211C0260137015B
S1130680E1E0E9831A821B821C8209C089829A8272
S1130690AB82BC8244244394512C612C712C8D81F7
S11306A04C145D046E047F0409F48F8581110DC020
S11306B08D81E980FA800B811C81E814F9040A0514
S11306C01B0509F48F85882381F08E806301520114
S11306D0E980FA800B811C812F81388549855A85F0
S11306E06B857C858D859E85BEDD73016201898065
S11306F09A80AB80BC80B59BEBCE8A8A9B8AAC8AFD
S1130700BD8ACE8ADF8AE88EF98E9E80992009F40C
S113071062C086B390916500292F282720FF0CC062
S1130720D1012C91211108C0E8ECEC939E7F282F75
S11307302170922B9093650090916500292F2827B2
S11307400CF0F7C0A4E6B0E02C912111F2C0E8EC63
S1130750EC939F778078892B80936500EAC0815061
S1130760A4E6B0E08C93B09B02C080E001C083E0BB
S1130770B79902C0B1E08B2790916200981B90FF5B
S113078009C0809362008091660081509270980F36
S11307909093660080916600982F91709093660004
S11307A0A82FA595BB27A7FDB0952A893B894C891D
S11307B05D8999D4EB84FC840D851E85E60EF71EB5
S11307C0081F191FE982FA820B831C834F80588407
S11307D069847A8461C086B390916500292F2827A3
S11307E020FF0CC0D1012C91211108C0E8ECEC933E
S11307F09E7F282F2170922B909365009091650025
S1130800292F28270CF0A1C0A4E6B0E02C912111D7
S11308109CC0E8ECEC939F778078892B80936500EB
S113082094C08150A4E6B0E08C93B09B02C080E0F9
S113083001C083E0B79902C0B1E08B2790916200B8
S1130840981B90FF09C080936200809166008150DC
S11308509270980F9093660080916600982F917023
S113086090936600A82FA595BB27A7FDB0952E8968
S11308703F89488D598D37D44F80588469847A8450
S1130880460E571E681E791EEB84FC840D851E855A
S1130890E982FA820B831C8391E02B853C854D858C
S11308A05E85E980FA800B811C812E153F05400787
S11308B0510709F490E081E00F81188529853A8574
S11308C0041515052605370509F480E0892B41F444
S11308D081E01889191101C080E0882309F4C7CD8B
S11308E0892CAE88BF88C88CD98CEA88FB880C898F
S11308F01D89A301920169817A818B819C81B3DC7A
S1130900B6CDD1018C91882311F081508C93E4E60B
S1130910F0E0808181110BCE0ECED1018C91882321
S113092011F081508C93E4E6F0E08081811168CE6F
S11309306BCED1018C91882311F081508C93E4E625
S1130940F0E0808181110BCF0ECFD1018C918823EF
S113095011F081508C93E4E6F0E08081811161CF45
S113096064CF9398662311F0949A01C0949895B338
S1130970907F892B85BB929A92980895939A94B309
S1130980907F94BB882311F0949A01C09498929A12
S1130990000083B3929894B39F6094BB93988F7034
S11309A00895CF93DF93C82FD62F82958F70D9DF08
S11309B06D2F8C2F8F70D5DFDF91CF910895CF935A
S11309C0DF93C82FDBDFD82FD295D07F8C2FD6DFD3
S11309D08D2BDF91CF91089580E0F1DF8823E4F33C
S11309E008958C9A8B9A8A9A84B38F6084BB85EA23
S11309F09EE00197F1F700C0000060E083E0B1DF02
S1130A0080E094E00197F1F700C0000060E083E02B
S1130A10A8DF91E29A95F1F7000060E083E0A1DF9E
S1130A208CE08A95F1F7000060E082E09ADF80E0D4
S1130A30D3DF60E088E2B5DF80E0CEDF60E088E00D
S1130A40B0DF80E0C9DF089570D088F09F5790F040
S1130A50B92F9927B751A0F0D1F0660F771F881FDF
S1130A60991F1AF0BA95C9F712C0B13081F077D046
S1130A70B1E0089574C0672F782F8827B85F39F0E4
S1130A80B93FCCF3869577956795B395D9F73EF43E
S1130A9090958095709561957F4F8F4F9F4F0895E6
S1130AA0E89409C097FB3EF4909580957095619504
S1130AB07F4F8F4F9F4F9923A9F0F92F96E9BB27BA
S1130AC09395F695879577956795B795F111F8CF36
S1130AD0FAF4BB0F11F460FF1BC06F5F7F4F8F4FA1
S1130AE09F4F16C0882311F096E911C0772321F097
S1130AF09EE8872F762F05C0662371F096E8862F2F
S1130B0070E060E02AF09A95660F771F881FDAF785
S1130B10880F9695879597F9089557FD9058440F37
S1130B20551F59F05F3F71F04795880F97FB991F48
S1130B3061F09F3F79F08795089512161306140605
S1130B40551FF2CF4695F1DF08C016161706180692
S1130B50991FF1CF86957105610508940895E8946D
S1130B60BB2766277727CB0197F908950BD01AC1C5
S1130B700BD128F010D118F0952309F0D7C0DCC0B0
S1130B801124EECFCADFA0F3959FD1F3950F50E067
S1130B90551F629FF001729FBB27F00DB11D639F2B
S1130BA0AA27F00DB11DAA1F649F6627B00DA11DD1
S1130BB0661F829F2227B00DA11D621F739FB00D77
S1130BC0A11D621F839FA00D611D221F749F3327E7
S1130BD0A00D611D231F849F600D211D822F762F80
S1130BE06A2F11249F5750408AF0E1F088234AF07D
S1130BF0EE0FFF1FBB1F661F771F881F91505040C9
S1130C00A9F79E3F510570F091C0AACF5F3FECF366
S1130C10983EDCF3869577956795B795F795E795B4
S1130C209F5FC1F7FE2B880F911D9695879597F9C5
S1130C300895FA01EE0FFF1F30962105310599F151
S1130C406115710561F48038BFE39B0749F168942D
S1130C509038810561F08038BFEF9B0741F09923FC
S1130C6042F5FF3FE1053105210511F1E8940894AF
S1130C70E795D901AA2329F4AB2FBE2FF85FD0F34F
S1130C8010C0FF5F70F4A695E0F7F73950F019F043
S1130C90FF3A38F49F779F930CD00F9007FC90583D
S1130CA008953EF049C060E070E080E89FE3089555
S1130CB04FE79F775F934F933F932F93C6D02F9126
S1130CC03F914F915F9152DF05C019F40EF02EC091
S1130CD046CF32C02ADFC8F39638C0F707F80F9220
S1130CE0E8942BE33AEA48EB5FE74EDF0F920F926A
S1130CF00F924DB75EB70F92E8D0E6E2F0E01FD056
S1130D004F915F91EF91FF91E595EE1FFF1F49F021
S1130D10FE57E0684427EE0F441FFA95E1F741952A
S1130D20550B5AD00F9007FE4EC0089597F99F6750
S1130D3080E870E060E008959FEF80EC0895DF9311
S1130D40CF931F930F93FF92EF92DF927B018C015D
S1130D50689405C0DA2EEF0115DFFE01E894A59131
S1130D602591359145915591AEF3EF01F3D0FE01F4
S1130D709701A801DA9479F7DF90EF90FF900F9133
S1130D801F91CF91DF91089500240A941616170637
S1130D9018060906089500240A9412161306140668
S1130DA005060895092E0394000C11F4882352F0CB
S1130DB0BB0F40F4BF2B11F460FF04C06F5F7F4F83
S1130DC08F4F9F4F08959B01AC0160E070E080E875
S1130DD09FE313C1ABCF79C1A8DEE8F39923D9F31C
S1130DE0940F511DBBF39150504094F059F0882357
S1130DF032F0660F771F881F91505040C1F79E3F15
S1130E00510544F7880F911D9695879597F9089594
S1130E105F3FACF0983E9CF0BB278695779567952D
S1130E20B79508F4B1609395C1F7BB0F58F711F467
S1130E3060FFE8CF6F5F7F4F8F4F9F4FE3CF90CE20
S1130E400EF043C179CF689471CF6FDEC8F3992354
S1130E50D1F3C6F3DF93CF931F930F93FF92C92F60
S1130E60DD2788232AF02197660F771F881FDAF77A
S1130E7020E030E040E85FEB9FE3883920F0803EDB
S1130E8030F021968F7755D0EEE4F0E003C051D0D6
S1130E90EBE7F0E054DF8B01BE01EC01FB2E6F5752
S1130EA071097595771F880B990BFCDD28E132E7F2
S1130EB041E35FE367DEAF2D9801AE01FF900F9130
S1130EC01F91CF91DF9146D06DCFFA01DC01AA0FBB
S1130ED0BB1F9B01AC01BF5728F4222733274427AB
S1130EE050781FC0B75188F4AB2F0024469537952E
S1130EF02795011CA395D2F3002069F0220F331F1C
S1130F00441FB395DAF30DD013C061307105A0E826
S1130F108A07B94630F49B01AC01662777278827F6
S1130F209078309621F0208331834283538308954F
S1130F305058BB27AA270ED035CF26DF30F02BDF41
S1130F4020F031F49F3F11F41EF4F6CE0EF4E09538
S1130F50E7FBECCEE92FE1DD80F3BA1762077307F4
S1130F608407950718F071F49EF5F9CD0EF4E09519
S1130F700B2EBA2FA02D0B01B90190010C01CA014F
S1130F80A0011124FF27591B99F0593F50F4503EFA
S1130F9068F11A16F040A22F232F342F4427585FEC
S1130FA0F3CF469537952795A795F0405395C9F704
S1130FB07EF41F16BA0B620B730B840BBAF09150BC
S1130FC0A1F0FF0FBB1F661F771F881FC2F70EC05B
S1130FD0BA0F621F731F841F48F48795779567952E
S1130FE0B795F7959E3F08F0B3CF9395880F08F017
S1130FF09927EE0F9795879508950CD0D3CECBDE25
S113100040F0C2DE30F021F45F3F19F08FCE511171
S1131010A7CD92CE82DD98F39923C9F35523B1F37A
S1131020951B550BBB27AA2762177307840738F053
S11310309F5F5F4F220F331F441FAA1FA9F333D0B2
S11310400E2E3AF0E0E830D091505040E695001C66
S1131050CAF729D0FE2F27D0660F771F881FBB1F22
S1131060261737074807AB07B0E809F0BB0B802DFC
S1131070BF01FF2793585F4F2AF09E3F510568F048
S113108055CE6ECD5F3FECF3983EDCF386957795B5
S11310906795B795F7959F5FC9F7880F911D96954A
S11310A0879597F90895E1E0660F771F881FBB1FA6
S11310B0621773078407BA0720F0621B730B840B53
S11310C0BA0BEE1F88F7E09508959F3F31F09150D9
S11310D020F4879577956795B795880F911D969518
S11310E0879597F90895B7FF04C003D0821B930B2B
S11310F0089509D0A59F900DB49F900DA49F800DD5
S1131100911D11240895A29FB001B39FC001A39F14
S113111001D0B29F700D811D1124911D0895BB272C
S11311204A3031F4992322F4BDE2909581959F4F82
S113113001C0BB27FB015527AA27880F991FAA1FA7
S1131140A41710F0A41B83955051B9F7A05DAA33DE
S113115008F0A95DA193009779F7B111B1931192A9
S1131160CB0100C0DC01FC01672F71917723E1F70B
S1131170329704C07C916D9370836291AE17BF0760
S10B1180C8F30895F894FFCFB1
S9030000FC
