:100000002BC03AC039C038C037C036C035C034C044
:1000100033C032C031C030C02FC02EC02DC02CC064
:100020002BC02AC029C034323020424C415A4520CE
:1000300049540047495420475544204641474745C5
:1000400054004A554D50004100485A00414D503A25
:1000500000465245513A000011241FBECFE5D4E0BE
:10006000DEBFCDBF20E0A0E6B0E001C01D92A73604
:10007000B207E1F7FFD035C3C3CFBBD260E081E068
:1000800098D281E0B1D260E086E093D281E0ACD238
:1000900060E08CE08ED281E0A7D20895CF93C82F84
:1000A00080916100882381F0CA3081F080916000E6
:1000B00081111FC081E098D260E081E07AD281E0B6
:1000C00093D21092610015C0CA3099F480916000FB
:1000D000811109C081E08093600060E080EC69D20A
:1000E00081E082D20BC081E08093610010926000B9
:1000F00005C061E08C2F5DD281E076D2CF9108956A
:10010000CF92DF92EF926B01E82EFB018491E7FC26
:100110008081882359F0C2DF8FEFC81AD80AE80A15
:10012000F6018491E7FC80818111F5CFEF90DF909B
:10013000CF90089590E4699F800D112460E080685D
:1001400038D281E051D2089560E081E032D280E07F
:100150004BD208954F925F926F927F928F92AF929F
:10016000BF92CF92DF92EF92FF920F931F93CF93A4
:10017000DF93CDB7DEB760970FB6F894DEBF0FBE42
:10018000CDBF2B013C0129873A874B875C87ED86E1
:10019000FE860F87188BD8DF60E080E0CBDF8820F9
:1001A00019F161E570E080E0ABDF4AE08E010F5F9E
:1001B0001F4FB801C20162D260E085E0BBDFC80119
:1001C000A0E8502E692E7A2EBC018A2F99DF60E0BC
:1001D0008EE0B0DF69E470E080E092DF4AE0B801D1
:1001E0008D859E854BD222C06CE470E080E088DF74
:1001F0004AE08E010F5F1F4FB80189859A853ED274
:1002000060E085E097DFC801A0E8502E692E7A2EC5
:10021000BC018A2F75DF60E08EE08CDF67E470E060
:1002200080E06EDF4AE0B801C50128D261E080E0DD
:1002300081DF62E470E080E063DF61E085E07ADF27
:10024000652D762D872D5CDF60960FB6F894DEBFA6
:100250000FBECDBFDF91CF911F910F91FF90EF9017
:10026000DF90CF90BF90AF908F907F906F905F9016
:100270004F900895CF93DF9300D000D01F92CDB759
:10028000DEB717BA88B3816C88BBF7DE0F2EF5E0B6
:10029000FF2EF02D83E390E03C01812C86E290E07C
:1002A0006C01E12C60E081E045DF882DB30128DF9F
:1002B00061E082E03FDF8E2DB60122DF87EA91E622
:1002C0000197F1F700C000003FDFE7EAF1E6319760
:1002D000F1F700C00000FA9429F7812C0F2EFAE004
:1002E000AF2EB12CC12CD12CF02D18EEE12E13E045
:1002F000F12E00E010E020E030E0A90160E070E0C5
:10030000CB0128DF812C912C540140E0C12CD12C51
:1003100076010F2EF3E62F2EF0E03F2EF02D07C0D2
:1003200089809A80AB80BC804D8173016201B6994F
:100330000BC0F1E0F427FD8387EA91E60197F1F71E
:1003400000C000008D8102C04D83842FB69BFECF7C
:100350008D83882309F45BC086B390916500292FB3
:10036000282720FF0CC0F1012081211108C008ECD2
:1003700000839E7F282F2170922B9093650090918F
:100380006500292F28270CF0DCC0E4E6F0E020818E
:100390002111D7C008EC00839F778078892B809348
:1003A0006500CFC08150E4E6F0E08083B09B02C0DE
:1003B00080E001C083E0B79902C0F1E08F279091FF
:1003C0006200981B90FF09C08093620080916600D4
:1003D00081509270980F90936600A09166008A2FCA
:1003E000817080936600A595BB27A7FDB09528EE88
:1003F00033E032D195018401060F171F281F391FE2
:1004000009831A832B833C832601370168C086B396
:1004100090916500292F282720FF0CC0F101208131
:10042000211108C008EC00839E7F282F2170922B99
:100430009093650090916500292F28270CF08DC0BE
:10044000E4E6F0E02081211188C008EC00839F776A
:100450008078892B8093650080C08150E4E6F0E0CD
:100460008083B09B02C080E001C083E0B79902C0E6
:10047000F1E08F2790916200981B90FF09C0809354
:1004800062008091660081509270980F9093660090
:1004900090916600892F817080936600492E459463
:1004A000552447FC5094652C752C440C551C661C37
:1004B000771CD301C201880F991FAA1FBB1F880F89
:1004C000991FAA1FBB1F480E591E6A1E7B1E4C0C8B
:1004D0005D1C6E1C7F1C89829A82AB82BC8291E07B
:1004E00009811A812B813C8180169106A206B306F0
:1004F00009F490E081E0C414D504E604F70409F49B
:1005000080E0892B41F481E01D81411301C080E02E
:10051000882309F405CF8D800F2EFAE0AF2EB12C81
:10052000C12CD12CF02D18EEE12E13E0F12E00E0BD
:1005300010E0A301920169817A818B819C810ADE9E
:10054000EFCEF1018081882311F081508083E4E6B1
:10055000F0E08081811126CF29CFF10180818823AD
:1005600011F081508083E4E6F0E08081811175CF45
:1005700078CF9398662311F0949A01C0949895B31C
:10058000907F892B85BB929A92980895939A94B301
:10059000907F94BB882311F0949A01C09498929A0A
:1005A000000083B3929894B39F6094BB93988F702C
:1005B0000895CF93DF93C82FD62F82958F70D9DF00
:1005C0006D2F8C2F8F70D5DFDF91CF910895CF9352
:1005D000DF93C82FDBDFD82FD295D07F8C2FD6DFCB
:1005E0008D2BDF91CF91089580E0F1DF8823E4F334
:1005F00008958C9A8B9A8A9A84B38F6084BB85EA1B
:100600009EE00197F1F700C0000060E083E0B1DFF9
:1006100080E094E00197F1F700C0000060E083E023
:10062000A8DF91E29A95F1F7000060E083E0A1DF96
:100630008CE08A95F1F7000060E082E09ADF80E0CC
:10064000D3DF60E088E2B5DF80E0CEDF60E088E005
:10065000B0DF80E0C9DF089505D0B7FF0895821BA1
:10066000930B0895A29FB001B39FC001A39F01D037
:10067000B29F700D811D1124911D0895BB274A3032
:1006800031F4992322F4BDE2909581959F4F01C0EA
:10069000BB27FB015527AA27880F991FAA1FA4175C
:1006A00010F0A41B83955051B9F7A05DAA3308F050
:1006B000A95DA193009779F7B111B1931192CB0184
:1006C00000C0DC01FC01672F71917723E1F73297BD
:1006D00004C07C916D9370836291AE17BF07C8F31D
:0606E0000895F894FFCF1D
:00000001FF
